{
    "contractName": "Hello",
    "abi": [
        {
            "constant": true,
            "inputs": [],
            "name": "hi",
            "outputs": [
                {
                    "internalType": "string",
                    "name": "",
                    "type": "string"
                }
            ],
            "payable": false,
            "stateMutability": "view",
            "type": "function"
        }
    ],
    "bytecode": "60c0604052600e60808190526d48656c6c6f20736f6c696469747960901b60a090815261002f9160009190610042565b5034801561003c57600080fd5b506100dd565b828054600181600116156101000203166002900490600052602060002090601f016020900481019282601f1061008357805160ff19168380011785556100b0565b828001600101855582156100b0579182015b828111156100b0578251825591602001919060010190610095565b506100bc9291506100c0565b5090565b6100da91905b808211156100bc57600081556001016100c6565b90565b610170806100ec6000396000f3fe608060405234801561001057600080fd5b506004361061002b5760003560e01c8063a99dca3f14610030575b600080fd5b6100386100ad565b6040805160208082528351818301528351919283929083019185019080838360005b8381101561007257818101518382015260200161005a565b50505050905090810190601f16801561009f5780820380516001836020036101000a031916815260200191505b509250505060405180910390f35b6000805460408051602060026001851615610100026000190190941693909304601f810184900484028201840190925281815292918301828280156101335780601f1061010857610100808354040283529160200191610133565b820191906000526020600020905b81548152906001019060200180831161011657829003601f168201915b50505050508156fea265627a7a72315820f6720e664addd537e633fb55faaca768d9ccf3df50c099099a63d591e54da29d64736f6c63430005100032",
    "sourcePath": "c:/Users/dhy24/OneDrive/바탕 화면/Melonisjy/Git/TIL/BlockChain/SolidityLecture/lec1.sol",
    "compiler": {
        "name": "solc",
        "version": "0.5.16+commit.9c3226ce"
    },
    "functionHashes": {
        "hi()": "a99dca3f"
    },
    "gasEstimates": {
        "creation": {
            "codeDepositCost": "73600",
            "executionCost": "infinite",
            "totalCost": "infinite"
        },
        "external": {
            "hi()": "infinite"
        }
    }
}