{
    "contractName": "lec2",
    "abi": [
        {
            "constant": true,
            "inputs": [],
            "name": "b",
            "outputs": [
                {
                    "internalType": "bool",
                    "name": "",
                    "type": "bool"
                }
            ],
            "payable": false,
            "stateMutability": "view",
            "type": "function"
        },
        {
            "constant": true,
            "inputs": [],
            "name": "b1",
            "outputs": [
                {
                    "internalType": "bool",
                    "name": "",
                    "type": "bool"
                }
            ],
            "payable": false,
            "stateMutability": "view",
            "type": "function"
        },
        {
            "constant": true,
            "inputs": [],
            "name": "b2",
            "outputs": [
                {
                    "internalType": "bool",
                    "name": "",
                    "type": "bool"
                }
            ],
            "payable": false,
            "stateMutability": "view",
            "type": "function"
        },
        {
            "constant": true,
            "inputs": [],
            "name": "b3",
            "outputs": [
                {
                    "internalType": "bool",
                    "name": "",
                    "type": "bool"
                }
            ],
            "payable": false,
            "stateMutability": "view",
            "type": "function"
        },
        {
            "constant": true,
            "inputs": [],
            "name": "b4",
            "outputs": [
                {
                    "internalType": "bool",
                    "name": "",
                    "type": "bool"
                }
            ],
            "payable": false,
            "stateMutability": "view",
            "type": "function"
        }
    ],
    "bytecode": "60806040526000805464ffff000000196201000061ffff199092166101001762ff000019169190911716905534801561003757600080fd5b50610103806100476000396000f3fe6080604052348015600f57600080fd5b506004361060505760003560e01c80630add6ef21460555780633db3fb0a14606f5780634df7e3d0146075578063e9b6190914607b578063ee495002146081575b600080fd5b605b6087565b604080519115158252519081900360200190f35b605b6096565b605b60a7565b605b60b0565b605b60c0565b60005462010000900460ff1681565b600054640100000000900460ff1681565b60005460ff1681565b6000546301000000900460ff1681565b600054610100900460ff168156fea265627a7a723158204f797f16ddf182c3e54cea1e81b9732583c54edcc33a5eda31a5699ca711e4d664736f6c63430005100032",
    "sourcePath": "c:/Users/dhy24/OneDrive/바탕 화면/Melonisjy/Git/TIL/BlockChain/SolidityLecture/lec2.sol",
    "compiler": {
        "name": "solc",
        "version": "0.5.16+commit.9c3226ce"
    },
    "functionHashes": {
        "b()": "4df7e3d0",
        "b1()": "ee495002",
        "b2()": "0add6ef2",
        "b3()": "e9b61909",
        "b4()": "3db3fb0a"
    },
    "gasEstimates": {
        "creation": {
            "codeDepositCost": "51800",
            "executionCost": "20968",
            "totalCost": "72768"
        },
        "external": {
            "b()": "1032",
            "b1()": "1087",
            "b2()": "999",
            "b3()": "1065",
            "b4()": "1021"
        }
    }
}